S018000073656174646F6F72746F6765746865722E7372656349
S113000012C02CC02BC02AC029C028C027C026C0BB
S113001025C024C023C022C021C020C01FC01EC0D0
S11300201DC01CC01BC011241FBECFE5D4E0DEBF21
S1130030CDBF11E0A0E6B0E0EAEFF3E002C0059026
S11300400D92A038B107D9F721E0A0E8B1E001C0D2
S11300501D92AE38B207E1F71FD0CDC1D1CF87E8EA
S113006086B980EC87B908955D9BFECF8CB908955D
S1130070CF93DF93EC018991882311F0F5DFFBCF57
S1130080DF91CF9108958CE089B98AB188618AB9EA
S113009080B5866880BD0895CF93DF93CDB7DEB772
S11300A02A970FB6F894DEBF0FBECDBFD8DFEBDFC3
S11300B017BA80E690E0DCDF2FE78FE492E121506D
S11300C080409040E1F700C0000085E690E0D0DF7A
S11300D02FE782EA99E1215080409040E1F700C087
S11300E0000083E790E0C4DF2FEF8CED9DE6215004
S11300F080409040E1F700C0000081E990E0B8DF63
S11301002FEF8EE994E2215080409040E1F700C047
S113011000008FE990E0ACDF2FEF8DE399E42150EC
S113012080409040E1F700C00000C12CD12CE12CAC
S1130130F12C8E010F5F1F4F369A349BFECF84B192
S113014095B190938B0180938A0118BA80918A01AA
S113015090918B01833891057CF5CD2809F05EC020
S113016043E0C42ED12C83EB90E082DF2FEF8EE9A5
S113017094E2215080409040E1F700C000008EEDF1
S113018090E076DF2FE78CEF9AE02150804090409A
S1130190E1F700C0000080EF90E06ADF2FEF8EE906
S11301A094E2215080409040E1F700C0000021E03B
S11301B0C21AD108C1F632C0CA94CD2819F0C12C94
S11301C0D12C2FC033E0C32ED12C83EB90E050DF31
S11301D09FEF2EE984E2915020408040E1F700C077
S11301E000008EED90E044DF9FE72CEF8AE0915011
S11301F020408040E1F700C000008CE191E038DF4E
S11302009FEF2EE984E2915020408040E1F700C046
S1130210000091E0C91AD108C1F6D1CFCC24C3940F
S1130220D12CB09B59C0B19BFECF2FEFE21AF20A3A
S11302304AE0B801C701ACD0F80101900020E9F709
S1130240CF01801B910B899690938D0180938C0133
S11302504AE060E871E09CD093E0A92EB12C83EBD6
S113026090E006DF8FEF9EE924E281509040204029
S1130270E1F700C0000088E491E0FADE80E891E054
S1130280F7DE8EE890E0F4DE8FE79CEF2AE0815001
S113029090402040E1F700C0000086E591E0E8DEF0
S11302A0C801E6DE8EE890E0E3DE8FEF9EE924E20B
S11302B0815090402040E1F700C0000081E0A81A7E
S11302C0B10869F69FE72FE482E191502040804015
S11302D0E1F700C0000018BAB19B2ECFB09BFECF4F
S11302E091E0E91AF1084AE0B801C70151D0F801D8
S11302F001900020E9F7CF01801B910B8996909320
S11303008D0180938C014AE060E871E041D083E084
S1130310A82EB12C83EB90E0ABDE2FEF8EE994E2B4
S1130320215080409040E1F700C0000088E491E053
S11303309FDE80E891E09CDE8EE890E099DE2FE776
S11303408CEF9AE0215080409040E1F700C000001B
S113035086E591E08DDEC8018BDE8EE890E088DED4
S11303602FEF8EE994E2215080409040E1F700C0E5
S1130370000021E0A21AB10869F68FE79FE422E1A8
S1130380815090402040E1F700C0000018BAD4CE5C
S1130390BB274A3031F4992322F4BDE2909581952C
S11303A09F4F01C0BB27FB015527AA27880F991F20
S11303B0AA1FA41710F0A41B83955051B9F7A05D90
S11303C0AA3308F0A95DA193009779F7B111B1930D
S11303D01192CB0100C0DC01FC01672F71917723DE
S11303E0E1F7329704C07C916D9370836291AE17EC
S10D03F0BF07C8F30895F894FFCF87
S11303FA41540D0A0041542B43574D4F44453D3354
S113040A0D0A0041542B43574A41503D2256657206
S113041A6D61222C223132333435363738220D0AB3
S113042A0041542B4349504D55583D310D0A004162
S113043A542B4349505345525645523D312C38307A
S113044A0D0A0041542B43495053544152543D34EC
S113045A2C22544350222C223138342E3130362E59
S113046A3135332E313439222C38300D0A004154B7
S113047A2B43495053454E443D342C34330D0A0022
S113048A474554202F7570646174653F6B65793DE7
S113049A44475858343136335A37584558453249FF
S11304AA266669656C64313D310D0A00474554205E
S11304BA2F7570646174653F6B65793D444758587C
S11304CA343136335A3758455845324926666965B0
S11304DA6C64313D300D0A0041542B434950534555
S11304EA4E443D342C00474554202F757064617482
S11304FA653F6B65793D44475858343136335A372A
S113050A584558453249266669656C64333D00008E
S9030000FC
