:100000000C942A000C9447000C9447000C94470071
:100010000C9447000C9447000C9447000C94470044
:100020000C9447000C9447000C9447000C94470034
:100030000C9447000C9447000C9447000C94470024
:100040000C9447000C9447000C9447000C94470014
:100050000C94470011241FBECFE5D4E0DEBFCDBF16
:1000600011E0A0E6B0E0E4E2F5E002C005900D92F8
:10007000A435B107D9F721E0A4E5B1E001C01D9294
:10008000A236B207E1F70E94AA000C9490020C94E9
:1000900000002AB128612AB920B5266820BDDC01FC
:1000A000CB01880F991FAA1FBB1F880F991FAA1F7A
:1000B000BB1F9C01AD01220F331F441F551F220F90
:1000C000331F441F551F60E472E48FE090E00E94EC
:1000D00039028FEF820F89B9DA01C9010197A109AD
:1000E000B109892F9A2FAB2FBB2780BD08955D9B47
:1000F000FECF8CB908950F931F93CF93FC0180819D
:10010000882359F08F01C0E00E947700CF5FF8018B
:10011000EC0FF11D80818111F7CFCF911F910F91CD
:1001200008951ABA87E886B980E487B9089597B127
:100130008F70982B97B9369A349BFECF83E08A95BF
:10014000F1F7000024B185B190E0982F8827820F45
:10015000911D0895CF93DF93CDB7DEB72A970FB6E1
:10016000F894DEBF0FBECDBF0E94910060EC72E13B
:1001700080E090E00E94490017BA80E690E00E947B
:100180007B002FE986E891E0215080409040E1F724
:1001900000C0000085E690E00E947B002FE38DE028
:1001A00093E0215080409040E1F700C0000083E7D9
:1001B00090E00E947B002FE78AE196E0215080408A
:1001C0009040E1F700C00000A12CB12CC12CD12C33
:1001D000612C712C88248394912C8E010F5F1F4F0A
:1001E00080E00E94970090935F0180935E0118BAAF
:1001F00080915E0190915F01883C9105BCF1A11452
:10020000B10409F069C00F2EF3E0EF2EF12CF02DB0
:1002100087E890E00E947B002FE38DE093E021507F
:1002200080409040E1F700C0000082EB90E00E9427
:100230007B002FE58AEE90E0215080409040E1F76E
:1002400000C0000084EC90E00E947B002FE38DE072
:1002500093E0215080409040E1F700C0000021E091
:10026000E21AF108A9F6A82CB92C36C081E0A8162C
:10027000B10491F50F2EF3E0EF2EF12CF02D87E86D
:1002800090E00E947B009FE32DE083E091502040AE
:100290008040E1F700C0000082EB90E00E947B000C
:1002A0009FE52AEE80E0915020408040E1F700C0B9
:1002B000000080EF90E00E947B009FE32DE083E050
:1002C000915020408040E1F700C0000091E0E91A21
:1002D000F108A9F6A62CB72CB09B64C0B19BFECF49
:1002E0002FEFC21AD20A4AE0B801C6010E945B028F
:1002F000F80101900020E9F7CF01801B910B89964E
:1003000090936101809360014AE064E571E00E948E
:100310005B020F2EF3E0EF2EF12CF02D87E890E03A
:100320000E947B008FE39DE023E0815090402040BD
:10033000E1F700C000008CE191E00E947B0084E5C1
:1003400091E00E947B008FEA90E00E947B008FE5A5
:100350009AEE20E0815090402040E1F700C000007C
:100360008AE291E00E947B00C8010E947B008FEA34
:1003700090E00E947B008FE39DE023E0815090405D
:100380002040E1F700C0000081E0E81AF10831F6F2
:100390009FE926E881E0915020408040E1F700C0CD
:1003A000000018BAB19B1CCFB09BFECF91E0C91AD8
:1003B000D1084AE0B801C6010E945B02F801019031
:1003C0000020E9F7CF01801B910B89969093610182
:1003D000809360014AE064E571E00E945B020F2EA9
:1003E000F3E0EF2EF12CF02D87E890E00E947B00E7
:1003F0002FE38DE093E0215080409040E1F700C072
:1004000000008CE191E00E947B0084E591E00E9475
:100410007B008FEA90E00E947B002FE58AEE90E05F
:10042000215080409040E1F700C000008AE291E056
:100430000E947B00C8010E947B008FEA90E00E942E
:100440007B002FE38DE093E0215080409040E1F766
:1004500000C0000021E0E21AF10831F68FE996E8C9
:1004600021E0815090402040E1F700C0000018BA20
:10047000B7CEA1E21A2EAA1BBB1BFD010DC0AA1FFD
:10048000BB1FEE1FFF1FA217B307E407F50720F0FD
:10049000A21BB30BE40BF50B661F771F881F991F78
:1004A0001A9469F760957095809590959B01AC01C1
:1004B000BD01CF010895BB274A3031F4992322F4BE
:1004C000BDE2909581959F4F0C946702BB27FB017D
:1004D0005527AA27880F991FAA1FA41710F0A41B3D
:1004E00083955051B9F7A05DAA3308F0A95DA19397
:1004F000009779F7B111B1931192CB010C9480025E
:10050000DC01FC01672F71917723E1F7329704C07A
:100510007C916D9370836291AE17BF07C8F3089505
:04052000F894FFCF7D
:1005240041540D0A0041542B4349504D55583D3117
:100534000D0A0041542B4349505345525645523DF0
:10054400312C38300D0A0041542B43495053544147
:1005540052543D342C22544350222C223138342E10
:100564003130362E3135332E313439222C38300D9A
:100574000A0041542B43495053454E443D342C34D6
:10058400330D0A00474554202F7570646174653F2C
:100594006B65793D44475858343136335A3758459A
:1005A40058453249266669656C64323D310D0A004E
:1005B400474554202F7570646174653F6B65793DC0
:1005C40044475858343136335A37584558453249D8
:1005D400266669656C64323D300D0A0041542B4334
:1005E400495053454E443D342C00474554202F7503
:1005F40070646174653F6B65793D44475858343184
:1006040036335A37584558453249266669656C640D
:04061400343D000071
:00000001FF
