:1000000012C02CC02BC02AC029C028C027C026C0BF
:1000100025C024C023C022C021C020C01FC01EC0D4
:100020001DC01CC01BC011241FBECFE5D4E0DEBF25
:10003000CDBF11E0A0E6B0E0E8E1F4E002C0059039
:100040000D92A038B107D9F721E0A0E8B1E001C0D6
:100050001D92AE38B207E1F722D0DCC1D1CF87E8DC
:1000600086B980EC87B908955D9BFECF8CB9089561
:10007000CF93DF93EC018881882329F02196F4DF68
:1000800089918111FCCFDF91CF9108958CE089B9DE
:100090008AB188618AB980B5866880BD0895CF939A
:1000A000DF93CDB7DEB72A970FB6F894DEBF0FBE49
:1000B000CDBFD5DFEBDF17BA80E690E0D9DF2FE7C1
:1000C0008FE492E1215080409040E1F700C00000B1
:1000D00085E690E0CDDF2FE782EA99E1215080406C
:1000E0009040E1F700C0000083E790E0C1DF2FEF10
:1000F0008CED9DE6215080409040E1F700C000006B
:1001000081E990E0B5DF2FEF8EE994E22150804045
:100110009040E1F700C000008FE990E0A9DF2FEFE9
:100120008DE399E4215080409040E1F700C0000049
:10013000A12CB12CC12CD12C612C712C882483943E
:10014000912C8E010F5F1F4F369A349BFECF84B1E6
:1001500095B190938B0180938A0118BA80918A019E
:1001600090918B0183389105A4F5A114B10409F095
:1001700063C00F2EF3E0EF2EF12CF02D83EB90E017
:1001800077DF2FEF8EE994E2215080409040E1F735
:1001900000C000008EED90E06BDF2FE78CEF9AE05F
:1001A000215080409040E1F700C0000080EF90E0D7
:1001B0005FDF2FEF8EE994E2215080409040E1F71D
:1001C00000C0000021E0E21AF108C1F6A82CB92C09
:1001D00033C081E0A816B10479F50F2EF3E0EF2EBD
:1001E000F12CF02D83EB90E043DF9FEF2EE984E2CA
:1001F000915020408040E1F700C000008EED90E07B
:1002000037DF9FE72CEF8AE0915020408040E1F7F4
:1002100000C000008CE191E02BDF9FEF2EE984E22B
:10022000915020408040E1F700C0000091E0E91AC1
:10023000F108C1F6A62CB72CB09B5BC0B19BFECFDA
:100240002FEFC21AD20A4AE0B801C601B0D0F801B5
:1002500001900020E9F7CF01801B910B89969093C4
:100260008D0180938C014AE060E871E0A0D00F2EF0
:10027000F3E0EF2EF12CF02D83EB90E0F9DE8FEF21
:100280009EE924E2815090402040E1F700C0000048
:1002900088E491E0EDDE80E891E0EADE8EE890E02F
:1002A000E7DE8FE79CEF2AE0815090402040E1F7A5
:1002B00000C0000086E591E0DBDEC801D9DE8EE8F3
:1002C00090E0D6DE8FEF9EE924E2815090402040FE
:1002D000E1F700C0000081E0E81AF10869F69FE745
:1002E0002FE482E1915020408040E1F700C00000FF
:1002F00018BAB19B29CFB09BFECF91E0C91AD108A3
:100300004AE0B801C60153D0F80101900020E9F796
:10031000CF01801B910B899690938D0180938C0166
:100320004AE060E871E043D00F2EF3E0EF2EF12CAD
:10033000F02D83EB90E09CDE2FEF8EE994E22150CC
:1003400080409040E1F700C0000088E491E090DE3A
:1003500080E891E08DDE8EE890E08ADE2FE78CEF7A
:100360009AE0215080409040E1F700C0000086E50F
:1003700091E07EDEC8017CDE8EE890E079DE2FEF32
:100380008EE994E2215080409040E1F700C00000E7
:1003900021E0E21AF10869F68FE79FE422E181503B
:1003A00090402040E1F700C0000018BACDCEBB2736
:1003B0004A3031F4992322F4BDE2909581959F4F04
:1003C00001C0BB27FB015527AA27880F991FAA1F29
:1003D000A41710F0A41B83955051B9F7A05DAA3360
:1003E00008F0A95DA193009779F7B111B19311922B
:1003F000CB0100C0DC01FC01672F71917723E1F78D
:10040000329704C07C916D9370836291AE17BF07E1
:08041000C8F30895F894FFCF32
:1004180041540D0A0041542B43574D4F44453D3339
:100428000D0A0041542B43574A41503D22566572EC
:100438006D61222C223132333435363738220D0A99
:100448000041542B4349504D55583D310D0A004148
:10045800542B4349505345525645523D312C383060
:100468000D0A0041542B43495053544152543D34D2
:100478002C22544350222C223138342E3130362E3F
:100488003135332E313439222C38300D0A0041549D
:100498002B43495053454E443D342C34330D0A0008
:1004A800474554202F7570646174653F6B65793DCD
:1004B80044475858343136335A37584558453249E5
:1004C800266669656C64313D310D0A004745542044
:1004D8002F7570646174653F6B65793D4447585862
:1004E800343136335A375845584532492666696596
:1004F8006C64313D300D0A0041542B43495053453B
:100508004E443D342C00474554202F757064617467
:10051800653F6B65793D44475858343136335A370F
:10052800584558453249266669656C64333D000074
:00000001FF
